{
  "_format": "hh-sol-artifact-1",
  "contractName": "POAProofRegistry",
  "sourceName": "contracts/POAProofRegistry.sol",
  "abi": [
    {
      "anonymous": false,
      "inputs": [
        {
          "indexed": true,
          "internalType": "string",
          "name": "proofId",
          "type": "string"
        },
        {
          "indexed": false,
          "internalType": "string",
          "name": "sessionId",
          "type": "string"
        },
        {
          "indexed": false,
          "internalType": "bool",
          "name": "verified",
          "type": "bool"
        },
        {
          "indexed": false,
          "internalType": "uint256",
          "name": "timestamp",
          "type": "uint256"
        }
      ],
      "name": "ProofStored",
      "type": "event"
    },
    {
      "inputs": [
        {
          "internalType": "string",
          "name": "proofId",
          "type": "string"
        }
      ],
      "name": "getProof",
      "outputs": [
        {
          "components": [
            {
              "internalType": "string",
              "name": "sessionId",
              "type": "string"
            },
            {
              "internalType": "bytes32",
              "name": "proofHash",
              "type": "bytes32"
            },
            {
              "internalType": "bool",
              "name": "verified",
              "type": "bool"
            },
            {
              "internalType": "uint256",
              "name": "attentionTime",
              "type": "uint256"
            },
            {
              "internalType": "uint256",
              "name": "timestamp",
              "type": "uint256"
            }
          ],
          "internalType": "struct POAProofRegistry.Proof",
          "name": "",
          "type": "tuple"
        }
      ],
      "stateMutability": "view",
      "type": "function"
    },
    {
      "inputs": [],
      "name": "getTotalProofs",
      "outputs": [
        {
          "internalType": "uint256",
          "name": "",
          "type": "uint256"
        }
      ],
      "stateMutability": "view",
      "type": "function"
    },
    {
      "inputs": [],
      "name": "proofCount",
      "outputs": [
        {
          "internalType": "uint256",
          "name": "",
          "type": "uint256"
        }
      ],
      "stateMutability": "view",
      "type": "function"
    },
    {
      "inputs": [
        {
          "internalType": "string",
          "name": "",
          "type": "string"
        }
      ],
      "name": "proofs",
      "outputs": [
        {
          "internalType": "string",
          "name": "sessionId",
          "type": "string"
        },
        {
          "internalType": "bytes32",
          "name": "proofHash",
          "type": "bytes32"
        },
        {
          "internalType": "bool",
          "name": "verified",
          "type": "bool"
        },
        {
          "internalType": "uint256",
          "name": "attentionTime",
          "type": "uint256"
        },
        {
          "internalType": "uint256",
          "name": "timestamp",
          "type": "uint256"
        }
      ],
      "stateMutability": "view",
      "type": "function"
    },
    {
      "inputs": [
        {
          "internalType": "string",
          "name": "proofId",
          "type": "string"
        },
        {
          "internalType": "string",
          "name": "sessionId",
          "type": "string"
        },
        {
          "internalType": "bytes32",
          "name": "proofHash",
          "type": "bytes32"
        },
        {
          "internalType": "bool",
          "name": "verified",
          "type": "bool"
        },
        {
          "internalType": "uint256",
          "name": "attentionTime",
          "type": "uint256"
        }
      ],
      "name": "storeProof",
      "outputs": [
        {
          "internalType": "bool",
          "name": "",
          "type": "bool"
        }
      ],
      "stateMutability": "nonpayable",
      "type": "function"
    },
    {
      "inputs": [
        {
          "internalType": "string",
          "name": "proofId",
          "type": "string"
        }
      ],
      "name": "verifyProof",
      "outputs": [
        {
          "internalType": "bool",
          "name": "",
          "type": "bool"
        }
      ],
      "stateMutability": "view",
      "type": "function"
    }
  ],
  "bytecode": "0x608060405234801561001057600080fd5b50610ee7806100206000396000f3fe608060405234801561001057600080fd5b50600436106100625760003560e01c80632640df771461006757806337eaa62a146100975780633b18f691146100c75780639b1bc0c9146100fb578063addecc0614610119578063d57763a114610137575b600080fd5b610081600480360381019061007c91906107c3565b610167565b60405161008e9190610b26565b60405180910390f35b6100b160048036038101906100ac9190610808565b6101d0565b6040516100be9190610b26565b60405180910390f35b6100e160048036038101906100dc91906108b8565b61039e565b6040516100f2959493929190610b81565b60405180910390f35b61010361047f565b6040516101109190610c3d565b60405180910390f35b610121610489565b60405161012e9190610c3d565b60405180910390f35b610151600480360381019061014c91906107c3565b61048f565b60405161015e9190610c1b565b60405180910390f35b600080838360405161017a929190610b0d565b908152602001604051809103902060020160009054906101000a900460ff1680156101c8575060008084846040516101b3929190610b0d565b90815260200160405180910390206004015414155b905092915050565b600080600089896040516101e5929190610b0d565b90815260200160405180910390206004015414610237576040517f08c379a000000000000000000000000000000000000000000000000000000000815260040161022e90610bdb565b60405180910390fd5b6040518060a0016040528087878080601f016020809104026020016040519081016040528093929190818152602001838380828437600081840152601f19601f820116905080830192505050505050508152602001858152602001841515815260200183815260200142815250600089896040516102b6929190610b0d565b908152602001604051809103902060008201518160000190805190602001906102e09291906105fb565b506020820151816001015560408201518160020160006101000a81548160ff02191690831515021790555060608201518160030155608082015181600401559050506001600081548092919061033590610d85565b9190505550878760405161034a929190610b0d565b60405180910390207f3aaf96dd546f77437324f5d22d47f47ff8783f3a121f22a777ef70d8aa87379a878786426040516103879493929190610b41565b60405180910390a260019050979650505050505050565b6000818051602081018201805184825260208301602085012081835280955050505050506000915090508060000180546103d790610d53565b80601f016020809104026020016040519081016040528092919081815260200182805461040390610d53565b80156104505780601f1061042557610100808354040283529160200191610450565b820191906000526020600020905b81548152906001019060200180831161043357829003601f168201915b5050505050908060010154908060020160009054906101000a900460ff16908060030154908060040154905085565b6000600154905090565b60015481565b610497610681565b60008084846040516104aa929190610b0d565b90815260200160405180910390206004015414156104fd576040517f08c379a00000000000000000000000000000000000000000000000000000000081526004016104f490610bfb565b60405180910390fd5b6000838360405161050f929190610b0d565b90815260200160405180910390206040518060a001604052908160008201805461053890610d53565b80601f016020809104026020016040519081016040528092919081815260200182805461056490610d53565b80156105b15780601f10610586576101008083540402835291602001916105b1565b820191906000526020600020905b81548152906001019060200180831161059457829003601f168201915b50505050508152602001600182015481526020016002820160009054906101000a900460ff1615151515815260200160038201548152602001600482015481525050905092915050565b82805461060790610d53565b90600052602060002090601f0160209004810192826106295760008555610670565b82601f1061064257805160ff1916838001178555610670565b82800160010185558215610670579182015b8281111561066f578251825591602001919060010190610654565b5b50905061067d91906106b5565b5090565b6040518060a00160405280606081526020016000801916815260200160001515815260200160008152602001600081525090565b5b808211156106ce5760008160009055506001016106b6565b5090565b60006106e56106e084610c89565b610c58565b9050828152602081018484840111156106fd57600080fd5b610708848285610d11565b509392505050565b60008135905061071f81610e6c565b92915050565b60008135905061073481610e83565b92915050565b60008083601f84011261074c57600080fd5b8235905067ffffffffffffffff81111561076557600080fd5b60208301915083600182028301111561077d57600080fd5b9250929050565b600082601f83011261079557600080fd5b81356107a58482602086016106d2565b91505092915050565b6000813590506107bd81610e9a565b92915050565b600080602083850312156107d657600080fd5b600083013567ffffffffffffffff8111156107f057600080fd5b6107fc8582860161073a565b92509250509250929050565b600080600080600080600060a0888a03121561082357600080fd5b600088013567ffffffffffffffff81111561083d57600080fd5b6108498a828b0161073a565b9750975050602088013567ffffffffffffffff81111561086857600080fd5b6108748a828b0161073a565b955095505060406108878a828b01610725565b93505060606108988a828b01610710565b92505060806108a98a828b016107ae565b91505092959891949750929550565b6000602082840312156108ca57600080fd5b600082013567ffffffffffffffff8111156108e457600080fd5b6108f084828501610784565b91505092915050565b61090281610cf1565b82525050565b61091181610cf1565b82525050565b61092081610cfd565b82525050565b61092f81610cfd565b82525050565b60006109418385610cd5565b935061094e838584610d11565b61095783610e5b565b840190509392505050565b600061096e8385610ce6565b935061097b838584610d11565b82840190509392505050565b600061099282610cb9565b61099c8185610cc4565b93506109ac818560208601610d20565b6109b581610e5b565b840191505092915050565b60006109cb82610cb9565b6109d58185610cd5565b93506109e5818560208601610d20565b6109ee81610e5b565b840191505092915050565b6000610a06601483610cd5565b91507f50726f6f6620616c7265616479206578697374730000000000000000000000006000830152602082019050919050565b6000610a46600f83610cd5565b91507f50726f6f66206e6f7420666f756e6400000000000000000000000000000000006000830152602082019050919050565b600060a0830160008301518482036000860152610a968282610987565b9150506020830151610aab6020860182610917565b506040830151610abe60408601826108f9565b506060830151610ad16060860182610aef565b506080830151610ae46080860182610aef565b508091505092915050565b610af881610d07565b82525050565b610b0781610d07565b82525050565b6000610b1a828486610962565b91508190509392505050565b6000602082019050610b3b6000830184610908565b92915050565b60006060820190508181036000830152610b5c818688610935565b9050610b6b6020830185610908565b610b786040830184610afe565b95945050505050565b600060a0820190508181036000830152610b9b81886109c0565b9050610baa6020830187610926565b610bb76040830186610908565b610bc46060830185610afe565b610bd16080830184610afe565b9695505050505050565b60006020820190508181036000830152610bf4816109f9565b9050919050565b60006020820190508181036000830152610c1481610a39565b9050919050565b60006020820190508181036000830152610c358184610a79565b905092915050565b6000602082019050610c526000830184610afe565b92915050565b6000604051905081810181811067ffffffffffffffff82111715610c7f57610c7e610e2c565b5b8060405250919050565b600067ffffffffffffffff821115610ca457610ca3610e2c565b5b601f19601f8301169050602081019050919050565b600081519050919050565b600082825260208201905092915050565b600082825260208201905092915050565b600081905092915050565b60008115159050919050565b6000819050919050565b6000819050919050565b82818337600083830152505050565b60005b83811015610d3e578082015181840152602081019050610d23565b83811115610d4d576000848401525b50505050565b60006002820490506001821680610d6b57607f821691505b60208210811415610d7f57610d7e610dfd565b5b50919050565b6000610d9082610d07565b91507fffffffffffffffffffffffffffffffffffffffffffffffffffffffffffffffff821415610dc357610dc2610dce565b5b600182019050919050565b7f4e487b7100000000000000000000000000000000000000000000000000000000600052601160045260246000fd5b7f4e487b7100000000000000000000000000000000000000000000000000000000600052602260045260246000fd5b7f4e487b7100000000000000000000000000000000000000000000000000000000600052604160045260246000fd5b6000601f19601f8301169050919050565b610e7581610cf1565b8114610e8057600080fd5b50565b610e8c81610cfd565b8114610e9757600080fd5b50565b610ea381610d07565b8114610eae57600080fd5b5056fea26469706673582212203fa345d2490f80b3681c7be52f21f434d286b010d095ca384cd9c5a869e0f8dc64736f6c63430008000033",
  "linkReferences": {},
  "deployedLinkReferences": {}
}